:400000000040002011000000210200002102000010B500F00DF9C04670B51222224B1A6000F0E6F9214800F07BFB012000F000FA302000F047F91E4A1E4B1A601E4C802585
:40004000ED0525601D4A116802230B4313601C4A1C4B1A6000221C4B1A601C4A136808218B431360FA20C00000F08EF9184800F081F988229201174B1A60174A174B1A603D
:4000800080221206164B1A608022D202154B1A604022154B1A601549082000F059F9082000F04AF9256070BD30001040001BB7000600008004010B400C020B4078002E40E3
:4000C0002D3E00007C002E4064F02E406CF02E40DC0500000003014040FF00800000014008010B4000010B40040101404905000010B572B60022184B1A6000240FE0174868
:400100006200131959000B00411889881A5AC31858880004104300F07DF80134E4B2012CEDD90F4A0F4B1A60992212040E4B1A600E4A117806230B43DBB2137020230C4AE8
:4001400013600C490C4A11600C4A1360FFF764FF00F050F810BDC0466CF02E40D0070000000099EE0000024000500F4000700F40000004400010DB00080004401800044024
:4001800010B5064C2378002B07D1054B002B02D0044800E000BF0123237010BD4801002000000000C4070000084B10B5002B03D00749084800E000BF07480368002B00D18F
:4001C00010BD064B002BFBD09847F9E7000000004C010020C4070000C00000200000000010B562B600F016FA014800F08BFAFEE7C80700000323044A1360044A13600022FB
:40020000034B1A607047C0463000304030003140000E3F4010B50A00002100F0CBFA10BD10B500F09BFA03680C2B00D1FEE7FEE770B50F4E0F4D13E029686B68AC68002207
:4002400002E001C901C30432A242FAD1E868002202E0002102C304328242FAD11035013E002EE9D100F080FAFFF7BAFFFEE7C046010000003008000010B50E4A13680121C7
:400280008B43136000230AE0032B03D89A000A49505800E009489900094A885001332F2BF2D9FFF725FF034A116801230B43136010BDC046000010400000000021020000F9
:4002C0000000002010B586B0040000F032FA0E4B1B6800930D4B1B680193033C0C4B1B5D02930C4B1B68039304AA0B4B04936B4605930A4B1A600A490A4A11601B6800F094
:400300001CFA06B010BDC04608010B4000010B40DC07000030001040B6EA0000080010401700008004001040024B1B68012018407047C0460C002E401F2318401E3B834002
:40034000014A13607047C04600E100E001BE704770B504000D001F2802D90020FFF7F6FF1034A40080239B059C4664442068256070BDC04610B5034B1B7B584300F0D0F976
:4003800010BDC046C400002010B504000F4A116801230B4313600E4A0E4B1A600E4A1368802109020B431360002809D100200CE00120FFF7DFFFFFF7B7FF002804D1013CB2
:4003C000002CF5D1102000E0002010BD60F02E400220000078002E4010002E40034B1868C0231B02184000D00120704700010B4010B50D4B1A6801218A431A601A68022004
:4004000082431A60094A10683024A043203C204310601068093CA043014311601A68802109060A431A6010BD00F02E4000FF2E4070B51D4B1B6801241C40002802D00128B2
:4004400016D02BE0184B19680122914319601968022081431960154B19682E3081432038014319601968093881430A431A6018E00D4B1A6802218A431A600C4A10680725BC
:40048000A84301431160116830208143103801431160196801220A431A6002E00020FFF755FF200070BDC04600F02E4000FF2E4010B500F03EF9044A1368C02109020B434E
:4004C000136000F03AF910BD00010B4010B500F030F908490A68084B1A408024E40122430A600A6813408022120213430B6000F024F910BD00010B40FF3FFFFF70B50500DF
:4005000000F017F90400FFF769FF002803D0FFF7DDFF012100E0002108482840084A1568084B2B40184310601368012901D1FFF7BFFF200000F001F970BDC04604040400E5
:4005400010020B40FBFBFBFF10B5244B1B685B0715D5234B5B685B070ED5224B596A042001401F4C62688A4362605A6A82435A629B69002B00D098470420FFF7BFFF174BFF
:400580001B685B0518D5164B5B685B0510D5154B596A8022D2001140114842688A434260596A114A0A405A62DB69002B00D098478020C000FFF7A2FF084B1B685B030CD55A
:4005C000074B5B685B0304D5064B1B6A002B00D098478020C002FFF791FF10BD10020B40D800002064010020FFFBFFFF10B500F073F810BD10B500F01DF810BD10B5044AE1
:400600001368802109060B431360FFF7EFFF10BD0000244010B5064B1B78002B04D1FFF7E9FF0122024B1A70FFF7E8FF10BDC0468C01002010B5154A154B1A600023154A5B
:4006400013600121144A1160144A15480260072414480460144803601448016014490A60144A13600421144A1160144A1360144A1360144A1360144A1360144A1360144A93
:4006800013601268134B1A8010BDC0460B0000020000244040002440480024400700008000032440040324401003244044002440000224400402244050002440880E2440CB
:4006C000C80E2440480F2440080F2440C80F2440880F24408E010020064A1168064B0B40902109040B431360044B1A88044B1A607047C04600000240FFFF0FFF8E0100204D
:40070000880F244070B50500002402E000F018F80134285D0028F9D170BDC046000000000230800803D00138FDD1C046C046C0467047EFF3108072B6704780F3108870473F
:40074000044B1B681F221340082BF9D0024B18607047C0460802244040022440014B18687047C046400100200E4B70B500251E000D4CE41AA410A54204D0AB00F35898473B
:400780000135F8E700F042F8084B00251E00084CE41AA410A54204D0AB00F35898470135F8E770BD1808000018080000180800002008000003008218934202D01970013303
:4007C000FAE7704700000000517565756500000000300F40000400400F400004030405060708090A0B0C0E0F101112131415161718191B1C1D1E1F20212223252627282937
:400800002A2B2E2F3031323334354300F8B5C046F8BC08BC9E467047A901000079020000F8B5C046F8BC08BC9E4670478101000040080000C0000020880000004800000069
:4008400000000000010000000000C05D80BB000030000000006CDC02F0000000040404000000000000000000000000000000000000000000000000000000000000000000A9
:400880000A08000000000000000000000000000000000000000000000000000000000000000000000000000000000000000000000000000000000000000000000000000026
:4008C000E0000020000000000000000000000000000000000000000000000000000000000000000000000000000000000000000000000000000000000000000000000000F8
:4009000000000000000000000000000000000000000000000000000000000000000000000000000000000000000000000000000000000000000000000000000000000000B7
:400940000000000000000000000000000000000000000000000000000000000000000000000000000000000000000000000000000000000000000000000000000000000077
:400980000000000000000000000000000000000000000000000000000000000000000000000000000000000000000000000000000000000000000000000000000000000037
:4009C00000000000000000000000000000000000000000000000000000000000000000000000000000000000000000000000000000000000000000000000000000000000F7
:020000040001F9
:0200000490303A
:0200000063207B
:0200000490402A
:4000000000000000000000000000000000000000000000000000000000000000000000000000000000000000000000000000000000000000000000000000000000000000C0
:400040000000000000000000000000000000000000000000000000000000000000000000000000000000000000000000000000000000000000000000000000000000000080
:0200000490501A
:0C00000000020E34119E00010E3674BE8A
:0200000490600A
:0100000001FE
:00000001FF