:400000000010002011000000490400004904000080B500AF00F022FA80B500AF0F4B0F4A12688021C9020A431A60302003F000FD0B4B0C4A1A600C4B10221A600B4B802250
:4000400012061A60054B8022D2021A60084B094A1A60094B00221A60BD4680BD00010B4004010B40060000800C02024008010B4000000240DB0500800C020B4080B582B036
:4000800000AF72B6FB1D00221A7023E0FB1D1A78131C5B009B185B003C4A9B183B603B681A78597809020A43997809040A43DB781B061343191C3B681A795B791B02134347
:4000C0009BB2081C191C00F047FAFB1D1A78FB1D01321A70FB1D1B78012BD7D92C4BFF2212061A602B4B2C4A1A602C4B992212041A602B4B992212041A602A4B99221204CA
:400100001A60294B992212041A60284A274B1B78DBB202210B43DBB21370254A244B1B78DBB23C218B43DBB214210B43DBB213701E4A1E4B1B78DBB216210B43DBB2137032
:400140001C4BE1221A601C4B1C4A1A601C4BC0221A601C4B40221A601B4BC02252031A601A4B02221A601A4B10221A60194B01221A60194B194A1A60194B01221A60FFF7EA
:400180004BFF00F0F9F9BD4602B080BD98400000000001400C000140FFEE000000500F4010500F4020500F4030500F4000700F4001700F4000000440080004400600D90004
:4001C000180004400001044008010440000204400802044000030440080304408E0D00001803044010B5064C2378002B07D1054B002B02D0044800E000BF0123237010BD7C
:400200005801002000000000E03F000008B5084B002B03D00748084900E000BF07480368002B00D108BD064B002BFBD09847F9E700000000E03F00005C010020C8000020D4
:400240000000000090B583B000AF7B1D02221A7062B600F061FA002000F0B4F9FB1D00221A70BB1D00221A7010E0BB1D1A78BB1D01321A70BB1D1B78FF2B02D1BB1D002258
:400280001A70FC1D00F002FF031C2370FB1D1B78002BEAD07B1D7A1D1278013A1A707B1D1B78002BD5D101F057F8031CDAB2574B1A70BB1D00221A700CE0BB1D1B78181CC8
:4002C00000F06AFE021C524B1A60BB1D1A78BB1D01321A704D4B1B78BA1D12789A42ECD33C1D4C4A4C4B101C191C00F0A9FA031C23704A4A3B1D1B78101C191C00F0F6FD5C
:400300003B1D1B78181C00F02DFA3C1D444A424B101C191C00F094FA031C2370414A3B1D1B78101C191C00F0E1FD3B1D1B78181C00F018FA3C1D3C4A374B101C191C00F00A
:400340007FFA031C2370394A3B1D1B78101C191C00F0CCFD3B1D1B78181C00F003FA3C1D314A334B101C191C00F06AFA031C2370304A3B1D1B78101C191C00F0B7FD3B1D43
:400380001B78181C00F0EEF93C1D274A2A4B101C191C00F055FA031C23703B1D1B78181C00F0E8FF021C254B1A603B1D1B78181C002100F041FF07E0FC1C3B1D1B78181C82
:4003C00000F0DCFB031C23703B1D1B78181C00F0FFFF031EF0D03B1D1B78181C00F0C2F90C4A174B101C191C01F04AF80C4A154B101C191C01F0EAF8094B181C01F008F81D
:40040000002000F0DFF800F09DF9FEE7990100208C010020E43F0000F03F0000F43F00000C4000001C4000003440000040400000584000005C400000744000009C0100203D
:40044000784000008840000080B500AF03F094FD031C1B680C2B00D1FEE7FEE780B586B000AF224B7B61224B3B61204B7B6135E03B691B68FB603B695B68BB603B699B68AD
:400480003B6000237B600CE0FB681A68BB681A60BB680433BB60FB680433FB607B6804337B607A683B689A42EED13B69DB683B6000237B6008E0BB6800221A60BB68043335
:4004C000BB607B6804337B607A683B689A42F2D13B6910333B617B69013B7B617B69002BC6D103F04FFDFFF7ADFEFEE7010000002C41000080B582B000AF00237B600FE06D
:400500007B68032B04D8104B7A689200D35800E00E4B0F4A796889008B507B6801337B607B682F2BECD9FFF7A9FD0A4B00221A608023DB058022D205126801210A431A601D
:40054000BD4602B080BDC046000000004904000000000020C000002080B582B000AF786039607A683B68101C00211A1C03F030FDBD4602B080BDC04680B500AFBD4680BD6B
:4005800080B582B000AF021CFB1D1A70002003F0E1F90020002103F091F903F025F803F0AFF803F081F8BD4602B080BD80B500AF012003F0CFF9002000F004F803F026F8D5
:4005C000BD4680BD80B582B000AF021CFB1D1A70FB1D1B78002B06D0002003F0BBF9012003F092F905E0012003F0B4F9002003F08BF9BD4602B080BD80B582B000AF021C70
:40060000FB1D1A70FB1D1B78181C03F063F8BD4602B080BD80B584B000AF78600023FB6012E07A68FB68D3181B78181C03F052F8C04603F029F8031EFBD003F015F8031C40
:40064000BB60FB680133FB60FB68FF2BE9D9BD4604B080BD90B585B000AF78600A1CFB1C1A700023FB6012E0FF2003F033F8C04603F00AF8031EFBD07A68FB68D41802F0AB
:40068000F3FF031CDBB22370FB680133FB60FB1C1A78FB689A42E7D8BD4605B090BDC04690B585B000AF78600023FB6012E0FF2003F010F8C04602F0E7FF031EFBD07A682E
:4006C000FB68D41802F0D0FF031CDBB22370FB680133FB60FB68FF2BE9D9BD4605B090BD80B582B000AF02F0BFFF021CFB1D1A70FB1D1B78181CBD4602B080BD80B582B0A7
:4007000000AF02F0C1FF021CFB1D1A70FB1D1B78181CBD4602B080BD80B500AF054B064A1A60064B064A1A600020FFF729FFBD4680BDC046D0010020E0010020A001002077
:400740000C03002080B500AF044BFF221A60044BFF221A60FFF72AFFBD4680BDD0010020A001002080B584B000AF021CFB1D1A700F23FB18A0221A70FB1D1B78012B46D823
:40078000FB1D1B78254AD35C1A1C0F231340012B04D0FB1D1B78181C00F0D4FBFB1D1A781F4B92000021D150FB1D1A781D4B92000021D150FB1D1A781B4B92000021D150E5
:4007C000FB1D1A78194B92000021D150FB1D1A78174B92000021D150FB1D1B78154A0021D154FB1D1B78144A0021D154FB1D1B780A4A0021D154FB1D1B78104A0021D15408
:40080000FB1D1A780F23FB180C498A5C1A700F23FB181B78181CBD4604B080BD08030020A8010020C0010020F0020020B4010020E0020020B0010020CC0100200003002065
:4008400090B587B000AF786039601623FB1800221A701523FB1800221A701723FB1800221A700FE01723FB181A78BF4B9200D358002B00D10BE01723FB181A781723FB184C
:4008800001321A701723FB181B78012BEAD91723FB181B78012B00D95FE11723FB181B78B24A0021D15472E01623FB181B783A68D3181B78722B14D11723FB181B78172279
:4008C000BA181278A9498A5C01210A43D1B2A74AD1541523FB181A781523FB1801321A704EE01623FB181B783A68D3181B78772B14D11723FB181B781722BA1812789B49CA
:400900008A5C02210A43D1B2984AD1541523FB181A781523FB1801321A7031E01623FB181B783A68D3181B78612B14D11723FB181B781722BA1812788C498A5C04210A43CF
:40094000D1B28A4AD1541523FB181A781523FB1801321A7014E01623FB181B783A68D3181B782B2B0CD11723FB181B781722BA1812787E498A5C08210A43D1B27B4AD154EB
:400980001623FB181A781623FB1801321A701623FB181B783A68D3181B78002B84D11523FB181B78012B0AD01723FB181B786F4A0021D1541523FB18AA221A7003E0152352
:4009C000FB1800221A701623FB1800221A7012E01623FB181B781622BA18127879688A1811780822BA18D1541623FB181A781623FB1801321A701623FB181B787A68D3181B
:400A00001B78002BE4D11623FB181B780822BA180021D1541523FC180823FB18181C02F0CDFB031C23701523FB181B78002B1DD11623FB1800221A7013E04D4B1A681623C3
:400A4000FB181B78D3181622BA181278082179188A5C1A701623FB181A781623FB1801321A701623FB181B780B2BE6D91523FB181B78002B6DD11723FB181B781722BA183A
:400A800012783C498A5C02218A43D1B2394AD1541723FB181B78181C002101F011FC1723FB181B78334AD35C1A1C0223134028D01723FB181B782D4AD35C1A1C012313408E
:400AC00004D01723FB1802221A7046E0284B1A681723FC181723FB181B78181C111C01F0AFFF031C23701723FB181B781722BA18127820498A5C02218A43D1B21D4AD15469
:400B00002BE01723FB181B78184AD35C1A1C0123134022D11723FB181B78144AD35C1A1C0223134007D01723FB181B78181C002102F02EF811E01723FB181A780E4B92009F
:400B4000D2581723FB181B78181C111C00F074FB03E01723FB1802221A701723FB181B78181CBD4607B090BDC001002008030020A001002000030020B401002090B585B073
:400B800000AF021CFB1D1A700F23FB1800221A70FB1D1B78012B00D9A7E0FB1D1A78564B9200D258554B1B689A4200D19DE0FB1D1A78534B9200D258FB1D1978514B890078
:400BC000CB589A4200D990E0FB1D1B78181C012102F048FC4C4B1B781A1C0123134007D04A4B1B685B0A5A02494B1B689A4240D0012001F093F9454B1B685120191C00F0A5
:400C000087FD002001F040F9031EAA2B23D0FE2001F03AF9031EAA2B11D0FF20FFF7ECFC01F098F90F23FC18FFF75AFD031C2370FB1D1B78181C002102F062FC16E0FB1DC2
:400C40001B78FA1D127833498A5C08210A43D1B2304AD1540AE0FB1D1B78FA1D12782D498A5C08210A43D1B22A4AD15400F006FE23E0FB1D1A78224B9200D358DB05DB0D8F
:400C8000BB60BB68FF2B08D8234B1A68BB68D2180F23FB1812781A7009E0204B1A68BB68013BFF3BD2180F23FB1812781A70FB1D1B78181C002102F023FCFB1D1A78104BCE
:400CC0009200D258FB1D19780E4B8900CB589A420BD1FB1D1B78FA1D12780E498A5C802149420A43D1B20B4AD1540F23FB181B78181CBD4605B090BDF0020020D8000020B8
:400D0000E0020020B40100207C010020A40100207801002000030020D0010020A001002080B584B000AF021CFB1D1A70BB1D0A1C1A700F23FB18AA221A70BB1D1B78022B79
:400D400000D1B5E0BB1D1B785D4AD35C1A1C0F231340012B00D1ABE0BB1D1A78594B9200D258594B1B689A420BD0BB1D1A78574B9200D258BB1D1978554B8900CB589A4288
:400D800008D9BB1D1B784E4AD35C1A1C0223134000D18DE0BB1D1A784C4B9200D258BB1D19784B4B8900CB5801339A4200D97FE0BB1D1A78474B9200D358002B04D1BB1DF3
:400DC0001B78181C02F014F8BB1D1A783F4B9200D258BB1D19783E4B8900CB589A4213D1BB1D1B783A4A99008A58511C384A9B009950BB1D1B78BA1D127831498A5C1021E6
:400E00000A43D1B22E4AD154BB1D1B78181C002102F028FB304B1A68304B1B689A421AD02F4B1B781A1C012313400BD02B4B1B68181C01F0ABFC2A4B1B7801229343DAB2C8
:400E4000274B1A70244B1B68181C01F097FD224B1A68224B1A60BB1D1A781C4B9200D358DB05DB0DBB60BB68FF2B07D81D4B1A68BB68D318FA1D12781A7008E01A4B1A6866
:400E8000BB68013BFF3BD318FA1D12781A70144B1B7801221343DAB2114B1A70BB1D1B78181C012102F02CFB0F23FB1800221A700F23FB181B78181CBD4604B080BDC046D5
:400EC00008030020F0020020D8000020E0020020B4010020C0010020A4010020780100207C010020D0010020A001002090B585B000AF78600A1CFB1C1A700F23FB18AA227F
:400F00001A7014E07B681A780F23FC18FB1C1B78101C191CFFF704FF031C23707B6801337B600F23FB181B78AA2B00D103E07B681B78002BE6D10F23FB181B78181CBD4608
:400F400005B090BD80B582B000AF021CFB1D1A700E4B1B781A1C0123134007D00C4B1B68181C01F013FC094B00221A70FB1D1B78084AD35C1A1C1023134004D0FB1D1B78B4
:400F8000181C02F0C3F8BD4602B080BD7C010020780100200803002080B584B000AF78607B68002B5FD0364B1B687A689A425AD87B680220191C01F083F9324B1B681B78A2
:400FC000002B4AD00F23FB1800221A7015E02E4B1A680F23FB181B781033D218294B19680F23FB181B78CB181B7813700F23FB181A780F23FB1801321A700F23FB181B784F
:40100000072BE4D9204B1B6818332E221A700F23FB1808221A7015E01B4B1A680F23FB181B781133D218174B19680F23FB181B78CB181B7813700F23FB181A780F23FB1802
:4010400001321A700F23FB181B780A2BE4D90E4B1B681C3300221A700AE00B4B1B68103300221A7004E0084B1B68103300221A70054B1B681033181CBD4604B080BDC04673
:40108000CC000020D0010020A001002090B583B000AF02F02FFC031C3B605C4B00221A705B4B181C002102F009FC00F00BFCFB1D00221A700FE0FF20FFF79EFA00F04AFFBF
:4010C000FFF70EFB031C1A1C524B1A70FB1D1A78FB1D01321A70FB1D1B78092BEBD9BC1D00F0F8FB031C2370FB1DFF221A70BB1DAA221A7012E000F067FCBC1D00F04CFC9E
:40110000031C2370FB1D1A78FB1D013A1A70FB1D1B78002B02D1BB1DAA221A70BB1D1B78002B03D0FB1D1B78002BE4D1BB1D1B78AA2B2AD1FB1DFF221A70BB1D00221A7029
:401140000FE0FB1D1A78FB1D013A1A70BB1DBA1D12781A70FB1D1B78002B02D1BB1DAA221A7000F001FC031E03D0FB1D1B78002BE7D1BB1D1B78AA2B03D0274B01221A70BE
:4011800006E0254B00221A7002E0234B02221A703B689BB2181C002102F090FB1B4B01221A7000F029FC021C1C4B1A601A4B1B781A1C0F23134004D0184B1B68181C00F0B5
:4011C00075FC154B1B781A1C0F23134005D0124B1B781A1CF023134011D1114B00221A70104B00221A60104B00221A600F4B00221A600F4B00221A600E4B02221A60064B63
:401200001B78181CBD4603B090BDC0467E010020DB050000FC0200207D01002074010020FD020020DC010020EC020020D401002004030020D000002080B586B000AF021CA0
:401240003960FB1D1A701723FB1820221A703A4B1B785B023868191C02F0FCFD031CFB60FB1D1B78012B5FD8FB1D1A78334B9200D358002B51D0FB1D1A78314B9200D2584A
:401280003B689A420FD8FB1D1A782D4B9200D2583B689A4236D3FB1D1B782A4AD35C1A1C042313402ED0FB1D1A78FB1D1978234B8900C958244B9200D15000233B6107E033
:4012C000FB1D1B78181C00F05BFE3B6901333B613A69FB689A42F3D3FB1D1B783A68520AD1B2FA68D2B2144800784243D2B28A1AD1B2164AD154FB1D1A78154B92003968D2
:40130000D1500AE0FB1D1B78FA1D127811498A5C04210A43D1B20F4AD154FB1D1A781723FB180C498A5C1A701723FB181B78181CBD4606B080BDC046FD020020C0010020D7
:40134000B401002008030020F0020020B0010020E00200200003002080B500AF044B0220191C00F0ADFF031C181CBD4680BDC046FEFF000080B584B000AF021CFB1D1A70D1
:401380000023FB60FB1D1B78012B05D8FB1D1A78044B9200D358FB60FB68181CBD4604B080BDC046B401002080B582B000AF021CFB1D1A70FB1D1B78012B04D8FB1D1B7850
:4013C000024A0021D154BD4602B080BD0003002080B584B000AF021CFB1D1A700F23FB1880221A70FB1D1B78012B08D8FB1D1B78064AD25C0F23FB187F218A431A700F23AF
:40140000FB181B78181CBD4604B080BD0003002090B585B000AF78600F23FB18AA221A700E23FC187A68154B101C191CFFF708FA031C23700E23FB181B78012B16D80E236B
:40144000FB181B78181CFFF7AFFF0F23FC180E23FB181B78181C012101F09AFB031C23700E23FB181B78181CFFF77CF90F23FB181B78181CBD4605B090BDC046CC400000AA
:4014800090B589B000AF786039601E23FB1800221A701F23FB1800221A7012E01F23FB181B781F22BA18127839688A1811780822BA18D1541F23FB181A781F23FB180132BA
:4014C0001A701F23FB181B783A68D3181B78002BE4D11F23FB181B780822BA180021D1541E23FC180823FB18181C01F067FE031C23701E23FB181B78002B5ED11D23FC18EC
:401500003A68314B101C191CFFF79AF9031C23701D23FB181B78022B45D11D23FC187A68294B101C191CFFF78BF9031C23701D23FB181B78022B31D01D23FB181B78181C63
:4015400001F052FD031CBB611F23FB1800221A7012E01F23FB181B78BA69D3181F22BA181278082179188A5C1A701F23FB181A781F23FB1801321A701F23FB181B780A2B2A
:40158000E7D91D23FB181B78181C01F051FD1D23FB181B78181CFFF7E5F80EE01E23FB18AA221A7009E01D23FB181B78181CFFF7D9F81E23FB18AA221A701E23FB181B7832
:4015C000181CBD4609B090BDCC40000090B585B000AF786039600F23FB1800221A700E23FC187A68474B101C191CFFF729F9031C23700E23FB181B78012B00D976E00D23D1
:40160000FC183A68404B101C191CFFF719F9031C23700D23FB181B78012B56D80E23FB181B78181CFFF7C0FE0D23FB181B78181C01F0DEFB36E00F23FC180E23FB181B7858
:40164000181C01F061F9031C23700F23FC180D23FB181B78181C01F065F8031C23700D23FB181A780D23FB181978284B8900CB58802189005918254B9200D1500E23FB181F
:401680001B78181C00F0AAFD0E23FB181B78181CFFF79EFE031E05D10D23FB181B78181C00F09CFD0E23FB181B78181CFFF790FE031EC0D00E23FB181A780D23FB181B78B9
:4016C000101C191C01F0A6FE03E00F23FB18AA221A700E23FB181B78181CFFF743F80D23FB181B78181CFFF73DF803E00F23FB18AA221A700F23FB181B78181CBD4605B0C3
:4017000090BDC046CC400000D0400000B401002080B582B000AF021C3960FB1D1A70FF20FEF76AFF00F016FCFEF7DAFF031C1A1C324B1A70FF20FEF75FFF00F00BFCFEF7EF
:40174000CFFF031C1A1C2D4B1A700120FEF73AFF00F0AAF8FB1D1B78181CFEF74DFF00F0F9FBFEF7BDFF031C1A1C244B1A703B681B0EDBB2181CFEF73FFF00F0EBFBFEF7D5
:40178000AFFF031C1A1C1D4B1A703B681B0CDBB2181CFEF731FF00F0DDFBFEF7A1FF031C1A1C164B1A703B681B0ADBB2181CFEF723FF00F0CFFBFEF793FF031C1A1C0F4B57
:4017C0001A703B68DBB2181CFEF716FF00F0C2FBFEF786FF031C1A1C084B1A70FF20FEF70BFF00F0B7FBFEF77BFF031C1A1C034B1A7000F059F8BD4602B080BDFC020020EB
:4018000090B583B000AFFB1D00221A70FF20FEF7F3FE00F09FFBFEF763FF031C1A1C164B1A70BC1DFEF75CFF031C2370FF20FEF7E3FE00F08FFBFC1DFEF752FF031C23703C
:401840007C1DFEF74DFF031C2370FF20FEF7D4FE00F080FBFEF744FF031C1A1C064B1A703C1DFEF73DFF031C2370FB1D1B78181CBD4603B090BDC046FC02002080B500AFFD
:40188000FF20FEF7B9FE00F065FBFEF729FF031C1A1C044B1A700020FEF794FE00F004F8BD4680BDFC02002080B500AF044B1B78002B02D1642002F071FABD4680BDC046E6
:4018C0007E01002080B500AFC82002F067FABD4680BDC04690B583B000AFFB1C00221A7000237B600DE0FF20FEF786FE00F032FBFEF7F6FE031C1A1C194B1A707B68013317
:401900007B607B68012BEED9FFF7DCFF0120FEF759FEFFF7C9FF00237B6011E0114A7B68D3181B78181CFEF767FE00F013FBFEF7D7FE031C1A1C0A4B1A707B6801337B60D3
:401940007B68052BEAD9FC1CFFF75AFF031C2370FFF794FFFB1C1B78181CBD4603B090BDFC020020A440000090B583B000AFFB1D00221A7041200021FFF7CAFEFC1DFFF7D2
:401980003FFF031C2370FFF779FFFB1D1B78181CBD4603B090BDC04690B583B000AFFB1D00221A7069200021FFF7B2FEFC1DFFF727FF031C2370FFF761FFFB1D1B78181C8A
:4019C000BD4603B090BDC04690B583B000AFFB1D00221A7077200021FFF79AFEFC1DFFF70FFF031C2370FFF749FFFB1D1B78181CBD4603B090BDC04680B582B000AF00237F
:401A00007B60BB1C00221A70402000F087FADF235B005120191CFFF77BFE002000F034FA031EAA2B33D0FE2000F02EFA031EAA2B29D01C4B1B68181C2021FEF70BFE1A4BE7
:401A40001B68181C2021FEF705FEFB1C0B221A7011E07B681B027B60124B1A68FB1C1B78D3181B781A1C7B689B187B60FB1C1A78FB1C013A1A70FB1C1B78072BE9D87B6829
:401A80005B027B6006E0BB1CAA221A7002E0BB1CAA221A70FFF7F2FE7B68181CBD4602B080BDC046D0010020A001002080B586B000AF78601723FB1800221A700023FB60BC
:401AC00080239B00181C00F029FA7B68002B04D11723FB18AA221A70AAE17B685120191CFFF716FE002000F0CFF9031EAA2B00D19AE1FE2000F0C8F9031EAA2B00D18EE19E
:401B0000D04B1B68181CFEF7CBFDCF4B1B68181CFEF7C6FDCB4B1B685A7BCC4B1A70C94B1B680F331B78BB60BB681B02BB60C54B1B680E331B781A1CBB689B18BB60BB68EB
:401B40005A027B68D218C24B1A60BE4B1B6836331B78462B52D1BB4B1B6837331B78412B4CD1B84B1B6838331B78542B46D1B54B1B6839331B78312B1CD1B24B1B683A33B8
:401B80001B78322B16D1B34B1B781A1CF0231340102B0ED0AF4B1B780F221340DAB2AD4B1A70AC4B1B7810221343DAB2A94B1A7023E022E0A34B1B6839331B78312B14D117
:401BC000A04B1B683A331B78362B0ED1A14B1B780F221340DAB29F4B1A709E4B1B7840221343DAB29B4B1A7007E09A4B1B780F221340DAB2974B1A7043E042E0914B1B6885
:401C000052331B78462B2FD18E4B1B6853331B78412B29D18B4B1B6854331B78542B23D1884B1B6855331B78332B1CD1854B1B6856331B78322B16D1864B1B781A1CF0233E
:401C40001340B02B0FD0834B1B780F221340DAB2804B1A707F4B1B78502252421343DAB27C4B1A700DE00CE07A4B1B781A1CF023134006D0774B1B780F221340DAB2754B33
:401C80001A70754B754A1A60754B02221A70714B1B781A1CF0231340B02B08D16E4B714A1A606F4B04221A706F4B704A1A60694B1B781A1CF0231340102B0DD0654B1B7810
:401CC0001A1CF0231340402B06D0624B1B781A1CF0231340602B46D15A4B1B6817331B78BB60BB681B02BB60564B1B6816331B781A1CBB689B18BB60524B1B6810331B78F1
:401D0000012B06D9BB685A02514B1B68D218584B1A604C4B1B6810331B781A1CBB6853435A024B4B1B68D218524B1A60524B00221A60524B00229A60424B1B6812331B78C4
:401D4000BB60BB681B02BB603E4B1B6811331B781A1CBB689B18BB60BB685A01454B1B68D218474B1A603B4B1B781A1CF0231340B02B5DD127233B610EE0FB681B02FB60EF
:401D8000304B1A683B69D3181B781A1CFB689B18FB603B69013B3B613B69232BEDD8294B1B6810331B78012B06D9FB685A02284B1B68D2182E4B1A60224B1B6810331B78FA
:401DC0001A1CFB6853435A02214B1B68D2182C4B1A602F233B610EE0FB681B02FB60194B1A683B69D3181B781A1CFB689B18FB603B69013B3B613B692B2BEDD81E4BFA6822
:401E00001A60FB681F4A944663445A021C4B1B68D218184B1A60194BFA689A6008E01723FB18AA221A7003E01723FB18AA221A70FFF724FD1723FB181B78181CBD4606B019
:401E400080BDC046D0010020A0010020FD020020DC0100207D010020D8000020FFFF0000D4000020FFFFFF0FCC000020FEFF0000EC020020D4010020D8010020C0010020F7
:401E800004030020FEFF7F0090B585B000AF021CFB1D1A700F23FB1800221A700E23FB18FF221A700D23FB18FA1D127801321A7020E0FF20FEF7A0FB00F04CF80D23FC18EE
:401EC000FEF70EFC031C23700E23FB181A780E23FB18013A1A700F23FB180F22BA1812781A700E23FB181B78002B03D10F23FB18AA221A70FA1D0D23FB1812781B789A4232
:401F000004D00E23FB181B78002BD2D10F23FB181B78181CBD4605B090BDC04690B585B000AF78600F23FB1800221A707B685020191CFFF7EDFB0F23FC18FFF761FC031C01
:401F40002370FFF79BFC0F23FB181B78181CBD4605B090BD90B583B000AFFC1DFEF7CEFB031C237004E0FC1DFEF7C8FB031C2370FB1D1B78002BF6D0BD4603B090BDC04674
:401F800090B585B000AF021CFB1D1A70FB1D1A78264B9200D358FB60FB1D1A78234B9200D258234B1B689A423CD0FB1D1C78FB1D1A781E4B9200D358181C00F03FF8011C64
:401FC0001A4BA200D150FB1D1A78184B9200D258174B1B689A4220D1FB1D1B78154AD35C1A1C0123134018D1FB1D1A780F4B9200F968D150FB1D1B78181C00F0F9FEFB1D79
:402000001C78FB1D1A78094B9200D358181C00F015F8011C054BA200D150FB1D1B78064A0021D154BD4605B090BDC046F0020020D800002008030020B001002080B588B031
:4020400000AF78601323FB1800221A701A23FB1801221A707B68002B06D11A23FB1802221A70444B1B687B60434B1B78181CFFF755FF75E0404B1B78022B06D17B685A00C4
:402080003E4B1B68D3187B6105E07B689A003B4B1B68D3187B617B695120191CFFF738FB0020FFF7F1FE031EAA2B39D0FE20FFF7EBFE031EAA2B2ED02F4B1B780C22BA1866
:4020C000101C191CFEF7C6FA0023FB611B23FB1801221A7017E0FB691B02FB61264B1B781A1C1B23FB181B78D31A0C22BA18D35C1A1CFB699B18FB611B23FB181A781B2375
:40210000FB1801321A701C4B1B781B22BA1812789A42E0D908E01323FB18AA221A7003E01323FB18AA221A70FFF7A8FB1A23FB181B78022B10D1FB69002B09D17B68FB616C
:402140000C4B7A681A601A23FB1800221A7007E07B6801337B6003E01A23FB1800221A701A23FB181B78002B84D1FB69181CBD4608B080BDD0000020D4000020DC01002024
:4021800080B584B000AF021CFB1D1A700023BB60FB1D1A780E4B9200D358002B13D0FB1D1A780C4B9200D358FB6007E0FB68BB60BB68181CFFF742FF031CFB60064B1B68E1
:4021C000FA689A42F2D1BB68181CBD4604B080BDC0010020F0020020D800002080B584B000AF021CFB1D1A700F23FB1800221A70FB1D1B782C4AD35C1A1C2C4B1B78013B13
:402200009A4208DAFB1D1B78274AD25C0132D1B2254AD15423E0FB1D1B78181CFFF7B0FEFB1D1A78224B9200D258224B1B689A4205D0FB1D1B781C4A0021D1540FE00F23DA
:40224000FB18AA221A70FB1D1B78FA1D12781A498A5C802149420A43D1B2174AD1540F23FB181B78002B18D1FB1D1A78FB1D1978124B8900CB588021890059180F4B92000F
:40228000D150FB1D1A78FB1D19780C4B8900CB585B0A5902094B9200D1500F23FB181B78181CBD4604B080BDB0010020FD020020F0020020D800002000030020E0020020C1
:4022C00090B587B000AF021C3960FB1D1A701723FB1800221A701623FB1800221A7000233B610023FB600B23FB1800221A70D04B9B68002B09D0CE4B9A68CE4B9A60CE4BD6
:4023000000229A70CD4B00229A60F8E0C84B9B68002B07D13B695A01C94B1B68D218C94B1A6003E00220012101F09CF82020FFF7F5FDC44B1B685120191CFFF7E9F900203A
:40234000FFF7A2FD031EAA2B15D0FE20FFF79CFD031EAA2B06D0BC4B1B68181C2021FEF779F910E00B23FB180B22BA18127808210A431A7007E00B23FB180B22BA181278A3
:4023800008210A431A70FFF779FA0B23FB181B78002B00D0A9E0AC4B1B681B78002B07D13B68AA4A934203D01623FB1801221A709F4B9B68002B0BD13B6901333B613B6908
:4023C000A34A93422ED91623FB1801221A7029E09A4B9B6820331A1C984B9A60974B9B689B4A93421ED9954B00229A60924B9B780133DAB2904B9A708F4B9A78954B1B783E
:402400009A420FD38C4B00229A700220FFF7B8FD884B9A68904B1B689A4203D11623FB1801221A70884B1B681B78402B47D9864B1B681B785A2B42D8834B1B680B331B7816
:402440001A1C182313403AD1FB680133FB603B68002B2AD11523FB1800221A7006E01523FB181A781523FB1801321A70764B1A681523FB181B78D3181A78784B19681523F6
:40248000FB181B78CB181B789A4204D11523FB181B780A2BE3D91523FB181B780A2B0DD91723FB1801221A701EE0FA683B689A4204D11723FB1801221A7015E014E03B6853
:4024C000624A93421BD1604B1B681B78E52B04D05D4B1B681B78002B11D1FB680133FB601723FB1801221A7009E01623FB1801221A701723FB181722BA1812781A7017238B
:40250000FB181B78002B05D11623FB181B78002B00D1FBE6FB1D1B78012B00D9E5E0FB1D1B78FA1D12784E49895C0B22BA1812780A43D1B24A4AD1541723FB181B78012BDD
:4025400000D0C6E0474B1B781A1CF0231340B02B2ED1FB1D1A783C4B1B6815331B78191C344B9200D150FB1D1A78FB1D1978314B8900CB5819022F4B9200D150FB1D1A78E7
:40258000FB1D19782B4B8900C9582F4B1B6814331B78C918274B9200D150FB1D1A78FB1D1978244B8900CB581902224B9200D150FB1D1A78FB1D19781E4B8900C958224BF9
:4025C0001B681B331B78C9181A4B9200D150FB1D1A78FB1D1978174B8900CB581902154B9200D150FB1D1A78FB1D1978114B8900C958154B1B681A331B78C9180D4B920008
:40260000D150FB1D1A780F4B1968174B9200D150FB1D1A78FB1D1978064B8900C958044B9200D1501523FB1800221A7044E0C046C0010020F0020020B0010020E0020020A8
:40264000D4010020A4010020D0010020FFFF0000FF010000FD020020D8000020A0010020000300207D010020A8010020FB1D1A78FB1D1978264B8900CB581902244B9200C3
:40268000D150FB1D1A78FB1D1978214B8900C958204B1B681520381800781F24201A1B181B78C9181A4B9200D1501523FB181A781523FB1801321A701523FB181B78032B78
:4026C000D4D9FB1D1A78134B1B68D97A124B995414E0FB1D1B78FA1D127810498A5C02210A43D1B20D4AD15408E01723FB181B78002B03D1074B1B6800221A70084B00225A
:402700001A60FB68DBB2181CBD4607B090BDC046B4010020D0010020CC010020000300207801002090B585B000AF021CFB1D1A700F23FB1800221A70FB1D1A78104B92000E
:40274000D258104B1B689A420FD0FB1D1B78181C002100F087FE0C4B1B680F22BC18181C00F014F8031C237003E00F23FB18AA221A700F23FB181B78181CBD4605B090BDD1
:40278000F0020020D8000020A401002090B585B000AF78600F23FB1800221A7080239B00181CFFF7BBFB7B685820191CFEF7B0FFFF20FDF721FFFFF7CDFB0F23FC18FDF7DB
:4027C0008FFF031C23700020FFF75EFB031EAA2B00D177E0FE20FDF70FFFFFF7BBFBFDF77FFF031C1A1C434B1A70434B1B68181CFDF710FF414B1B68181CFDF70BFFFF20B9
:40280000FDF7FAFEFFF7A6FBFDF76AFF031C1A1C384B1A70FF20FDF7EFFEFFF79BFBFDF75FFF031C1A1C334B1A70FF20FDF7E4FEFFF790FB0F23FC18FDF752FF031C237068
:402840000F23FB181B780F221340052B35D1FF20FDF7D2FEFFF77EFB0F23FC18FDF740FF031C23700F23FB1800221A7080231B02BB600DE0FF20FDF7BFFEFFF76BFB0F2332
:40288000FC18FDF72DFF031C2370BB68013BBB600F23FB181B78002B02D1BB68002BE9D1BB68002B04D10F23FB18AA221A700DE00F23FB1800221A7008E00F23FB18AA2245
:4028C0001A7003E00F23FB18AA221A70FEF7D6FF0B4B7A681A600B4B1B7801229343DAB2084B1A700F23FB181B78181CBD4605B090BDC046FC020020D0010020A001002022
:40290000780100207C01002090B585B000AF021CFB1D1A700F23FB1800221A7080239B00181CFFF7FBFAFB1D1A78114B9200D258104B1B689A420FD0FB1D1B78181C0021CF
:4029400000F090FD0C4B1B680F22BC18181C00F015F8031C237003E00F23FB18AA221A700F23FB181B78181CBD4605B090BDC046F0020020D8000020A401002080B584B04B
:4029800000AF78600F23FB1800221A70284B1B781A1C0123134010D0264B1B687A689A420BD0244B1B68181CFFF7F0FE204B1B7801229343DAB21E4B1A701E4B1B687A6831
:4029C0009A422ED080239B00181CFFF7A7FA7B685120191CFEF79CFE0020FFF755FA031EAA2B15D0FE20FFF74FFA031EAA2B0AD0114B1B68181CFDF753FE104B1B68181C05
:402A0000FDF74EFE08E00F23FB18AA221A7003E00F23FB18AA221A70FEF730FF054B7A681A600F23FB181B78181CBD4604B080BD7C01002078010020D0010020A00100209D
:402A400080B588B000AF021C3960FB1D1A701F23FB1800221A7012E01F23FB181B781F22BA18127839688A1811780C22BA18D1541F23FB181A781F23FB1801321A701F233D
:402A8000FB181B780A2BE7D9FB1D1B78384A181C111CFFF715FCFB1D1B78181C00F0A4FA031CBB611F23FB1800221A7012E01F23FB181B78BA69D3181F22BA1812780C218B
:402AC00079188A5C1A701F23FB181A781F23FB1801321A701F23FB181B780A2BE7D91F23FB180B221A7011E01F23FB181B78BA69D3181F22BA1812781E498A5C1A701F2356
:402B0000FB181A781F23FB1801321A701F23FB181B781F2BE8D9FB1D1B78181C00F088FAFB1D1B78144A0021D154FB1D1A78134B92000021D150FB1D1A78114B92000021B6
:402B4000D150FB1D1A780F4B92000021D150FB1D1A780D4B92000021D150FB1D1B780B4A0021D154FB1D1B78181CBD4608B080BDFFFF0000AC400000CC010020C0010020B1
:402B8000F0020020B4010020E0020020B001002090B587B000AF021CFB1D1A70BB1D0A1C1A701623FB18AA221A70FB1D1A78464B9200D358002B07D0FB1D1A78424B920083
:402BC000D358181C00F08EF8FB1D1A783F4B9200D3585B0A5B02181CFFF7D0FEFB1D1A783A4B9200D358DB05DB0D3B613B69181C00F0D6F9031CFB60BB1D1B78002B41D14C
:402C00001723FB181A221A700DE01723FB181B78FA68D31800221A701723FB181A781723FB1801321A701723FB181B781F2BECD9274B1B78042B07D1FB68143300221A7081
:402C4000FB68153300221A70FB1D1A781E4B92000021D150FB1D1A781E4B92000021D150FB1D1A781C4B92000021D150FB1D1A781A4B92000021D150FB1D1B78184A002139
:402C8000D15402E0FB68E5221A70FB1D1A780F4B9200D3585B0A5B02181CFFF777FDBB1D1B78012B08D11623FC18FB1D1B78181CFDF758FD031C23701623FB181B78181C4E
:402CC000BD4607B090BDC046C0010020A8010020D4000020F0020020B4010020E0020020B001002080B586B000AF786000237B617B68181C00F0B2F96AE03A4B1B781A1C34
:402D00007B685343DB05DB0DFB60FB68181C00F047F9031CBB6000237B611323FB1801221A7024E07B691B027B612E4B1B781A1C1323FB181B78D31A1A1CBB689B181B7876
:402D40001A1C7B699B187B61264B1B781A1C1323FB181B78D31A1A1CBB689B1800221A701323FB181A781323FB1801321A701D4B1B781322BA1812789A42D3D91A4B1B6812
:402D80007A699A420DD0174B1B781A1C7B685A43144B1B78191C7B694B4353405B0A5B020CD07B68181C00F07FF90F4B1B687A699A4203D07B69181C00F050F90B4B1B68EA
:402DC0007A689A4202D2094B7A681A607B697B60054B1B687A699A428FD10023181CBD4606B080BDD4000020D8000020D000002090B587B000AF021CFB1D1A700020FFF7B6
:402E00001DF9031CFB60FB685A1C5F4B1A60FB1D1B78181CFFF7B4F9031CBB60BB68002B32D1FB1D1A78594B9200F968D150FB1D1A78574B9200F968D150FB1D1B78181C57
:402E400000F0D2F8031C3B613B691A33FA68D2B21A703B691B33FA68120AD2B21A704D4B1B78042B0BD13B691433FA68120CD2B21A703B691533FA68120ED2B21A70FB1DBB
:402E80001B78181C00F0D4F8FB68181C00F0E6F8031C3B611723FB1800221A7015E01723FB181B783A69D2183B4B19681723FB181B78DB00D9400B1CDBB213701723FB18B5
:402EC0001A781723FB1801321A70324B1B781722BA1812789A42E2D3BB68002B04D1FB68181C00F0E1F84AE0BB68181C00F0FCF8041CFB68181C00F0F7F8031C9C420AD0AB
:402F0000FB68181C00F0D0F8BB68181C00F0A6F8031C3B610BE01F4B1B781A1CBB685343DB05DB0D181C00F03BF8031C3B611723FB1800221A7014E01723FB181B783A6981
:402F4000D3181722BA181278D200F968D1400A1CD2B21A701723FB181A781723FB1801321A700C4B1B781722BA1812789A42E3D3BB68181C00F098F8084B00221A60002376
:402F8000181CBD4607B090BDD0000020C0010020F0020020D4000020D80000207801002080B584B000AF78607B68DB05DB0D7B607A6880235B00134005D1094B1A687B6836
:402FC000D318FB6006E0074B1A687B68013BFF3BD318FB60FB68181CBD4604B080BDC046D0010020A001002080B584B000AF021CFB1D1A70FB1D1A780C4B9200D3585B0AF4
:403000005B02181CFFF7BAFCFB1D1A78074B9200D358DB05DB0DFB60FB68181CFFF7C0FF031C181CBD4604B080BDC046A801002080B582B000AF021CFB1D1A70FB1D1A7895
:40304000054B9200D3585B0A5B02181CFFF79EFBBD4602B080BDC046A801002080B584B000AF78607B68181C00F03EF8031CFB600B4B1A68FB68D318181CFFF77FFC094B37
:403080001B781A1C7B685343DB05DB0DBB60BB68181CFFF785FF031C181CBD4604B080BDDC010020D400002080B584B000AF78607B68181C00F018F8031CFB60084B1A688C
:4030C000FB68D318181CFFF761FB064B1A68FB68D318181CFFF75AFBBD4604B080BDC046DC010020EC02002080B582B000AF7860054B1B781A1C7B6853435B0A5B02181CE1
:40310000BD4602B080BDC046D400002080B586B000AF021CFB1D1A70FB1D1A78244B9200D3583B61FB1D1B78181CFFF75DFF031CFB60FB680B33FA1D12781E498A5C1A7093
:403140001723FB1800221A701AE01723FB181B781C331A1CFB689B18FA1D1178144A890089581722BA181278D200D1400A1CD2B21A701723FB181A781723FB1801321A70E4
:403180001723FB181B78032BDFD9FB1D1B78181CFFF74EFFFB1D1B78FA1D127806498A5C10218A43D1B2044AD154BD4606B080BDB4010020CC0100200803002080B584B066
:4031C00000AF78600F23FB1800221A700E23FB1800221A700D23FB1800221A703CE00F23FB181B787A68D2180A23FB1812781A700A23FB181B78602B12D90A23FB181B7848
:403200007A2B0DD80F23FB181B787A68D3180F22BA18127879688A181278203AD2B21A700A23FB181B782E2B0FD10D23FB181B78002B06D10D23FB180F22BA1812781A701F
:4032400003E00E23FB18AA221A700F23FB181A780F23FB1801321A700F23FB181B787A68D3181B78002BBAD10D23FB181B78002B12D00C23FB180D22BA1812781A700F239E
:40328000FA180D23FB1812781B78D31ADAB20B23FB18013A1A7009E00C23FB180F22BA1812781A700B23FB1800221A707B681B78402B03D97B681B785A2B03D90E23FB1816
:4032C000AA221A700C23FB181B78082B04D80B23FB181B78032B03D90E23FB18AA221A700E23FB181B78AA2B00D18CE00B23FB181B78002B4DD00D23FB181B78072B26D811
:403300000F23FB180B22BA1812781A7019E00F23FB181B7807331A1C7B689B180D22BA1811780F22BA1812788A18111C7A68521812781A700F23FB181A780F23FB18013AC1
:403340001A700F23FB181B78002BE0D121E00F23FB1808221A7013E00F23FB181B787A68D3180F22BA181278013279688A1812781A700F23FB181A780F23FB1801321A704D
:403380000F23FB181A780B23FB181B7807339A42E2DD0F23FB180A221A700DE00F23FB181B787A68D31820221A700F23FB181A780F23FB18013A1A700F23FB181A780B234E
:4033C000FB181B7807339A42E8DC0F23FB180C22BA1812781A700DE00F23FB181B787A68D31820221A700F23FB181A780F23FB1801321A700F23FB181B78072BECD97B680B
:403400000B3300221A700E23FB181B78181CBD4604B080BD80B582B000AF021CFB1D1A70BB1D0A1C1A70BB1D1A78FB1D19780B4B8900C958094B9200D150BB1D1B78FA1DA9
:4034400012780749895C064AD154BB1D1B78181CFFF75CFEBD4602B080BDC046B4010020CC01002080B582B000AF021CFB1D1A70BB1D0A1C1A70FB1D1A781B4B9200D35844
:403480009A1E1A4B1A601A4B1B781A1C174B1B685A43164B1A60FB1D1B78164AD35C1A1C124B1B68D218114B1A60104B1B685A020E4B1A600D4B1A680F4B1B68D2180B4BD6
:4034C0001A60BB1D1B78012B0BD1FB1D1A780B4B9200D358DB05DA0D044B1B68D218034B1A60BD4602B080BDF0020020A4010020FD020020B001002004030020E0020020F5
:4035000090B583B000AF021CFB1D1A70BB1D0A1C1A70FB1D1B78244A99008A58511C224A9B009950FB1D1A781F4B9200D358002B37D0FB1D1A781C4B9200D358DB05DB0D92
:403540002FD1FB1D1B78194AD35C1A1C184B1B78013B9A421DD1FB1D1B78144A0021D154BB1D1B78002B0ED1FB1D1C78FB1D1A78104B9200D358181CFEF760FD011C0D4BAF
:40358000A200D1500DE0FB1D1B78181CFEF7F8FC07E0FB1D1B78054AD25C0132D1B2034AD154BD4603B090BDE0020020B0010020FD020020F002002080B500AF00F0B6F8D3
:4035C000BD4680BD80B500AF064B064A1268802109060A431A6000F033F800F039F8BD4680BDC0460000074080B500AF064B1B78002B04D1FFF7E0FF034B01221A70FFF7BE
:40360000E1FFBD4680BDC0468001002080B500AF0B2000F091FB00F021F8074B064A1268520052081A60054B00221A600B2000F097FBBD4680BDC04600000740880F0740E9
:4036400080B500AF0B2000F063FBBD4680BDC04680B500AF00F0C8F8BD4680BD80B500AF00F0DEF8BD4680BD80B582B000AF00237B60044B1B687B607B68181CBD4602B05C
:4036800080BDC0464003074080B582B000AF054B1B680F2213407B607B68181CBD4602B080BDC0460803074080B500AF074B074A1268802149020A431A60044B034A1268CA
:4036C00003490A401A60BD4680BDC04604030740FFFFFEFF80B582B000AF7860C046064B1B680F221340082BF9D0044B7A681A60BD4602B080BDC046080207404002074066
:4037000080B500AF074B074A1268802149020A431A60044B034A126803490A401A60BD4680BDC04604020740FFFFFEFF80B500AF1C4B1D4A1A601D4B1D4A1A601D4B1E4ADC
:403740001A601E4B07221A601D4B1B4A1A601D4B00221A600B2000F0EFFA0B20032100F083FA194B0B20191C00F058FA174B00221A60174B00221A60164B00221A60164B58
:4037800000221A60154B00221A60154B00221A60134B1B689AB2134B1A80002000F070F8BD4680BD0000074005000001200007401100008000030740070100800403074033
:4037C0000002074004020740393E0000880E0740C80E0740480F0740080F0740C80F0740880F07408201002080B500AF094B094A1268F02109050A431A60064B054A126822
:40380000F02109060A431A60034B044A12881A60BD4680BD00000140880F07408201002080B500AF114B1B68082213405A1E9341DBB2181C00F0D6F80D4B0D4A12680D4965
:403840000A401A60012000F0A9F8094B084A1268120112091A60084B1B689BB2202213409AB2064B1A80BD4680BDC0462000074000000140FFFFFFF0880F074082010020BF
:4038800080B584B000AF78600A4B1B68FB60FB68094A1340FB607B689A06C0231B051340FA681343FB60034BFA681A60BD4604B080BDC04620000740FFFFFFF380B584B0B1
:4038C00000AF021CBB1D1A807B1D0A1C1A70084B1B681B0C1B04FB60BB1D1A88FB681343BB60034BBA681A60BD4604B080BDC0460000024080B500AF024B1B689BB2181C21
:40390000BD4680BD0000024080B584B000AF021CFB1D1A700E4B1B68DAB20F23FB1840218A431A70FB1D1B789B01DBB240221340D9B20F23FB180F22BA1812780A431A700B
:40394000034B0F22BA1812781A60BD4604B080BD0001044080B584B000AF021CFB1D1A700D4B1B68DAB20F23FB1801218A431A70FB1D1B7801221340D9B20F23FB180F229A
:40398000BA1812780A431A70034B0F22BA1812781A60BD4604B080BD0000044080B584B000AF021CFB1D1A700D4B1B68DAB20F23FB187F210A401A70FB1D1B78DB01D9B23D
:4039C0000F23FB180F22BA1812780A431A70044B0F22BA1812781A60BD4604B080BDC0460000044080B584B000AF021CFB1D1A700E4B1B68DAB20F23FB1840218A431A704D
:403A0000FB1D1B789B01DBB240221340D9B20F23FB180F22BA1812780A431A70034B0F22BA1812781A60BD4604B080BD0000044090B585B000AF78600C23FC1800F0F2F91D
:403A4000031C23707B68022B00D8B4E07B68302B00D9B0E05E4B1B78DBB21A1E7B689A420AD35C4A0F23FB1812781A705A4A0E23FB1812781A703FE0584B1B78DBB21A1EBF
:403A80007B689A420AD3564A0F23FB1812781A70544A0E23FB1812781A702DE0524B1B78DBB21A1E7B689A420AD3504A0F23FB1812781A704E4A0E23FB1812781A701BE0FF
:403AC0004C4B1B78DBB21A1E7B689A420AD34A4A0F23FB1812781A70484A0E23FB1812781A7009E0464A0F23FB1812781A70454A0E23FB1812781A707B68DA1E0B23FB188F
:403B000041498A5C1A700B23FB181B782F2B0DD97B682A2B0AD93D4B19221A60052000F077F90D23FB1819221A7007E0374B1B68DAB20D23FB183F210A401A700B23FA1863
:403B40000D23FB1812781B789A4208D22F4B7A68033A2D498A5C1A60052000F059F97B68284A9A180A23FB1812781A70284B0A22BA1812781A60274B0F22BA1812781A6010
:403B8000254B0E22BA1812781A60052000F02AF90B23FA180D23FB1812781B789A4209D91A4B7A68033A18498A5C1A60052000F02FF903E002E0002000F0E6F80C23FB1882
:403BC0001B78181C00F032F9BD4605B090BDC046C0F1FF0FC1F1FF0FC2F1FF0FC3F1FF0FC4F1FF0FC5F1FF0FC6F1FF0FC7F1FF0FC8F1FF0FC9F1FF0FCAF1FF0FCBF1FF0FA2
:403C0000CCF1FF0FCDF1FF0FD44000002CFF0B4028FF0B401CFF0B4020FF0B4080B584B000AF021C3960FB1D1A7080239B05FB60FB1D1B781F2B02D9002000F0A5F8FB1D7D
:403C40001B7810339B00FA68D3181B68BB60FB1D1B7810339B00FA68D3183A681A60BB68181CBD4604B080BD90B587B000AF021CFB1D1A70BB1D0A1C1A70BB1D1B78032B9F
:403C800002D9002000F080F8FB1D1B781F2B02D9002000F079F8FB1D1B7803221340DB0006337B611323FC1800F0BCF8031C2370FB1D1B789B08DBB29B00144A9446634448
:403CC0001B68FB607B6903229A40131CDA43FB681340FB60BB1D1A787B699A40131CFA681343FB60FB1D1B789B08DBB29B00074A94466344FA681A601323FB181B78181C08
:403D000000F094F8BD4607B090BDC04600E400E080B582B000AF021CFB1D1A70054BFA1D12781F210A40012191400A1C1A60BD4602B080BD00E100E080B582B000AF021C6B
:403D4000FB1D1A70054BFA1D12781F210A40012191400A1C1A60BD4602B080BD80E100E080B582B000AF021CFB1D1A70054BFA1D12781F210A40012191400A1C1A60BD4679
:403D800002B080BD80E200E080B582B000AF021CFB1D1A7001BEBD4602B080BD80B582B000AF786009E00C4B1B68181C00F030F87B680A4A944663447B607A6880231B0219
:403DC0009A42F0D8064B1B687A685343181C00F01FF8BD4602B080BDE80000200080FFFFE000002080B582B000AF021CBB1D1A80BB1D1B88044A12785343181C00F008F86D
:403E0000BD4602B080BDC046E4000020000000000230800804D0C0460138FDD1C046C046C0467047EFF3108072B6704780F310887047C046C046C04680B500AF044B1B6847
:403E4000002B02D0024B1B689847BD4680BDC04684010020002243088B4274D303098B425FD3030A8B4244D3030B8B4228D3030C8B420DD3FF22090212BA030C8B4202D3F3
:403E80001212090265D0030B8B4219D300E0090AC30B8B4201D3CB03C01A5241830B8B4201D38B03C01A5241430B8B4201D34B03C01A5241030B8B4201D30B03C01A52413C
:403EC000C30A8B4201D3CB02C01A5241830A8B4201D38B02C01A5241430A8B4201D34B02C01A5241030A8B4201D30B02C01A5241CDD2C3098B4201D3CB01C01A5241830951
:403F00008B4201D38B01C01A524143098B4201D34B01C01A524103098B4201D30B01C01A5241C3088B4201D3CB00C01A524183088B4201D38B00C01A524143088B4201D367
:403F40004B00C01A5241411A00D20146524110467047FFE701B5002000F00CF802BDC0460029F7D003B5FFF775FF0EBC4243891A1847C0467047C046014B18687047C04651
:403F8000500100200E4B70B500251E1C0D4CE41AA410A54204D0AB00F35898470135F8E700F0B2F8084B00251E1C084CE41AA410A54204D0AB00F35898470135F8E770BDDF
:403FC0001441000014410000144100001C410000031C8218934202D019700133FAE770470000000066696C65312E7478740000007700000054686973206973206D792031EF
:4040000073742066696C652E0000000066696C655F746D702E747874000000005468697320697320612074656D702066696C652E0000000066696C65322E74787400000094
:4040400054686973206973206D7920326E642066696C652E00000000610000004920617070656E646564207468697320746578742E0000007200000066696C655F72656EE8
:404080002E7478740000000066696C655F6370792E7478740000000000300F40000400400F400004400000000095000046494C454E414D4545585420184FAC4E363136312D
:4040C0000000867B30310000000000007200000077000000030405060708090A0B0C0E0F101112131415161718191B1C1D1E1F2021222325262728292A2B2E2F30313233EE
:404100003435000043000000F8B5C046F8BC08BC9E4670470D020000F5040000F8B5C046F8BC08BC9E467047E501000040410000C800002090000000B802000000000000A6
:4041400000000000000200000200000002000000FFFF0000006CDC0280BB0000300000000000C05D0100000000000000000000000000000000000000000000000000000068
:4041800000000000000000000441000000000000000000000000000000000000000000000000000000000000000000000000000000000000000000000000000000000000BA
:4041C0000000000000000000F000002000000000000000000000000000000000000000000000000000000000000000000000000000000000000000000000000000000000AF
:40420000000000000000000000000000000000000000000000000000000000000000000000000000000000000000000000000000000000000000000000000000000000007E
:40424000000000000000000000000000000000000000000000000000000000000000000000000000000000000000000000000000000000000000000000000000000000003E
:4042800000000000000000000000000000000000000000000000000000000000000000000000000000000000000000000000000000000000000000000000000000000000FE
:4042C00000000000000000000000000000000000000000000000000000000000000000000000000000000000000000000000000000000000000000000000000000000000BE
:0200000490303A
:020000001E3DA3
:0200000490402A
:200000000000000000000000000000000000000000000000000000000000000000000000E0
:0200000490501A
:0C000000000204C81193110104DF2FD08E
:0200000490600A
:0100000001FE
:00000001FF